:0300000002037682
:0C037600787FE4F6D8FD7581200203BDFD
:10001E000000F88CF8F3F95BF9B8FA15FA67FAB93B
:10002E00FB04FB4BFB90FBCFFC10FC44FC79FCACBF
:10003E00FCDCFD09FD34FD5CFD82FDA6FDC8FDE87E
:10004E00FE06FE22FE3DFE56FE6EFE85FE9AFEAEBC
:10005E00FEC1FED3FEE4FEF4FF030F0111011401F5
:10006E001601190419031D011B02190416011901A9
:10007E0016011403160119021B021D041B011D019A
:10008E0020012201190419031D011B021902190274
:10009E0016021B0C0002140219041802190119058C
:1000AE00000219021902180216021801160314048E
:1000BE00140214041202110114071402140216027F
:1000CE000F02120112011102110414021904180276
:1000DE0019011905000219021902180219021B0151
:1000EE001B0119021902190218021902190119032A
:1000FE00180218011601160216021801160114082C
:10010E000004140219021904110216021604140234
:10011E001B021B040F021201120111021102000236
:10012E001402140212021202110111030F020F0225
:10013E000D0211010F010F04120211041402190213
:10014E001904110216021602140214021B021B02DB
:10015E000F020F0212021102140214021D021D02DE
:10016E001B021B02190219021B0219021D021D029B
:10017E001B011B05000214021802190119011904B2
:10018E0000021902190216011801160214021802B1
:10019E0019021B021901190314021802190119057B
:1001AE0000021902190216011801160214021B028E
:1001BE001D021E021D011D0314021802190119054C
:1001CE0000021902190216011801160214021B026E
:1001DE0019021802190119050002190219021B0150
:1001EE001D011B021902190218021B021901190125
:1001FE000002140218021901190119040002190251
:10020E0019021601180116021402180219021B0215
:10021E001901190314021802190119050002190215
:10022E00190216011801160214021B021D021E02EB
:10023E001D011D03140218021901190500021902ED
:10024E00190216011801160214021B0219021802D5
:10025E00190119050002190219021B011D011B02C9
:0D026E001902190218021B0219011901FFE3
:0304CE00010E001C
:03000B00020402EA
:10040200C0E0C0F0C083C082C0D075D000C0067505
:10041200F002E50BA4241EF582E5F03400F58374A6
:1004220001937002E493601D75F002E50BA4241E93
:10043200F582E5F03400F583E493FE740193F58AC6
:10044200EEF58CB2B3D006D0D0D082D083D0F0D02B
:02045200E03296
:03001B0002045488
:04045400C0E0C0D074
:10045800E50EC39508500543B004800353B0FB056F
:0F0468000EC3E50E94FF748094804003750E0060
:05047700D0D0D0E032FE
:10027B00E4F50CF50D12049CE5C8542070333001E5
:10028B002CE50A045403F50A14600F146012146071
:10029B0015240370187508FF8000C28CC2B3800D43
:1002AB007508FFE48003E4F508F509D28CC20180E0
:1002BB0002D201E50A14600F1460671460792403FD
:1002CB0070B67508FF80B1AF08EFF46003EF701DD7
:1002DB00E4F50CF50D7F017E0012047C050DE50D98
:1002EB007002050CC394DCE50C940540E820001467
:1002FB000508C3E50894FF74809480401B7508FFC4
:10030B00D2008014D3E508940174809480400415C6
:10031B00088005E4F508C2007F327E0012047C02DF
:10032B0002837508FFE50990006893FFF460028073
:10033B0010E4F509020283E50990006893FFF4606D
:10034B00248F0B0509E50993FF7E007C057DAA121E
:10035B0004F512047C0509C28C7F057E0012047C17
:0B036B00D28C020283E4F50902028339
:1004D1000108FFC100010A00C181010B00010900EF
:10049C0043B20453B1FB53CADF53C9DF53B1F74323
:0D04AC00B208C2B31204B91204E2D2AF22AA
:1004B9005389F0438901758A18758CFCC28DC28CE9
:0504C900D2A9C2B92216
:1004E200538EBF53890F758BF0758DFFC28FD28EDD
:0304F200D2AB2268
:10047C00D3EF9400EE940040167D6EEDD39400748F
:0F048C0080948040031D80F3EF1F70E41E80E119
:01049B00223E
:1003820002027BE493A3F8E493A34003F68001F214
:1003920008DFF48029E493A3F85407240CC8C3337C
:1003A200C4540F4420C8834004F456800146F6DF4B
:1003B200E4800B01020408102040809004CEE47E09
:1003C200019360BCA3FF543F30E509541FFEE49340
:1003D200A360010ECF54C025E060A840B8E493A307
:1003E200FAE493A3F8E493A3C8C582C8CAC583CA32
:1003F200F0A3C8C582C8CAC583CADFE9DEE780BEEA
:0104E100001A
:1004F500EF8DF0A4A8F0CF8CF0A428CE8DF0A42E1B
:02050500FE22D4
:00000001FF
