:030000000206D421
:0C06D400787FE4F6D8FD75812002071B3A
:10001E000000F88CF8F3F95BF9B8FA15FA67FAB93B
:10002E00FB04FB4BFB90FBCFFC10FC44FC79FCACBF
:10003E00FCDCFD09FD34FD5CFD82FDA6FDC8FDE87E
:10004E00FE06FE22FE3DFE56FE6EFE85FE9AFEAEBC
:10005E00FEC1FED3FEE4FEF4FF030A020D021402FB
:10006E000D02060208010A0114020D020102080225
:10007E0014020D02010214020C0214020A020D02F5
:10008E0014020A02060208010A0114020D020102FC
:10009E00080214020D02010214020C010D011402D9
:1000AE000A020D0214020D02060208010A011402D0
:1000BE000D020102080214020D02010214020C02CA
:1000CE0014020A020D0214020A02060208010A01B3
:1000DE0014020D020102080214020D0201021402A2
:1000EE000C010D0114020002140214020D020D0483
:1000FE000F0211020002140214020D020D020F0172
:10010E0011010F010D010805FF0002140214020D6A
:10011E00020D040F021102000211040F011101124F
:10012E000111010F01120111010F010D0208020D43
:10013E00020D021102120211020F020D010F011126
:10014E00021102110211020F0111010F020D04081A
:10015E00020D020F021102120211020F020D010F07
:10016E000111021102110211020F0111010F020DF4
:10017E00030C010D010D010D010D010C010D020D00
:10018E00020D010D010D010C010D020D020D010DEF
:10019E00010D010C010D020D020D010D010D0114D9
:1001AE0001140214010001140114011401140114AC
:1001BE00021402140114011401140112011101118F
:1001CE000900040D010D010D010D01FF0A020C02C3
:1001DE000D021402120211020D020D0600040D0191
:1001EE000D010D010D0111020D020A020C020D028C
:1001FE001402120211020D020F0A000811020F0260
:10020E00120211040D0214021802190218020D0234
:10021E000D040D0216021602000216021402140438
:10022E001402120211020F0211021202110A11021D
:10023E001302150211041202140218021B021802F4
:10024E0019021906000219021902140214021602EA
:10025E001401120112020F011101FF1202140216F3
:10026E00020D0216031801180411020F02120211D8
:10027E00040D0214021802190214021402160214BA
:10028E0001120112020F01110100021602140214D2
:10029E00041402120211020F0211021202110A11AB
:1002AE00021302150211041202140218021B021884
:1002BE00021902190600021902190214021402167A
:1002CE0002140212020A020C020D020F0211020F98
:1002DE000611020D0A0008FF0F011101140116018B
:1002EE00190419031D011B02190416011901160127
:1002FE001403160119021B021D041B011D0120010E
:10030E002201190419031D011B02190219021602FA
:10031E001B0C00021402190418021901190500021F
:10032E0019021902180216021801160314041402F7
:10033E00FF14041202110114071402140216020F04
:10034E0002120112011102110414021904180219E9
:10035E00011905000219021902180219021B011BCC
:10036E0001190219021902180219021901190318AA
:10037E0002180116011602160218011601140800C1
:10038E000414021902190411021602160414021B97
:10039E0002FF1B040F0212011201110211020002D0
:1003AE001402140212021202110111030F020F02A3
:1003BE000D0211010F010F04120211041402190291
:1003CE001904110216021602140214021B021B0259
:1003DE000F020F0212021102140214021D021D025C
:1003EE001B021B02190219021B0219021D021D0219
:1003FE001B011B0500021402180219011901FF1935
:10040E00040002190219021601180116021402182C
:10041E000219021B021901190314021802190119FB
:10042E000500021902190216011801160214021B08
:10043E00021D021E021D011D0314021802190119CC
:10044E000500021902190216011801160214021BE8
:10045E000219021802190119050002190219021BCC
:10046E00011D011B021902190218021B02190119A2
:10047E0001000214021802190119011904000219CF
:10048E000219021601180116021402180219021B93
:10049E000219011903140218021901190500021993
:1004AE0002190216011801160214021B021D021E69
:1004BE00021D011D0314021802190119050002196B
:1004CE0002190216011801160214021B0219021853
:1004DE0002190119050002190219021B011D011B47
:1004EE00021902190218021B02190119010004FF58
:03082C00011200B6
:03000B0002076089
:10076000C0E0C0F0C083C082C0D075D000C00675A4
:10077000F002E511A4241EF582E5F03400F583743F
:1007800001937002E493601D75F002E511A4241E2C
:10079000F582E5F03400F583E493FE740193F58A65
:1007A000EEF58CB2B3D006D0D0D082D083D0F0D0CA
:0207B000E03235
:03001B000207B227
:0407B200C0E0C0D013
:1007B600E512C3950E500543B004800353B0FB0504
:0F07C60012C3E51294FF748094804003751200F3
:0507D500D0D0D0E0329D
:1004FE00E4F508F509F50AF50B750C00750D681293
:10050E0007FAE5C85420704D300146E51004540337
:10051E00F51014600F1460121460232403703275EA
:10052E000EFF8000C28CC2B38027750EFFE4F50F5C
:10053E00F50AF50B750C00750D68D28C8013750ECF
:10054E00FFE4F50FF50A750B04750C02750DE6D276
:10055E008CC2018002D201E51014601214606C147A
:10056E00700302064C24037099750EFF8094AF0E33
:10057E00EFF46005EF6401701DE4F508F5097F01E5
:10058E007E001207DA0509E50970020508C39464B6
:10059E00E508940040E8200014050EC3E50E94FF14
:1005AE0074809480401B750EFFD2008014D3E50E2C
:1005BE009402748094804004150E8005750E01C25D
:1005CE00007F507E001207DA020510750EFFE50D52
:1005DE00250FF582E4350CF583E493FFF4601A8F52
:1005EE0011050FE50D250FF582E4350CF583E49327
:1005FE00FF7E007C067D0E8071050BE50B700205FB
:10060E000AE4F50FE50A7028E50B24FE601014606D
:10061E00162402701B750C01750D17020510750C52
:10062E0001750DDA020510750C02750D69020510C3
:10063E00750C00750D68E4F50AF50B020510750EC4
:10064E00FFE50D250FF582E4350CF583E493FFF4F9
:10065E00602E8F11050FE50D250FF582E4350CF593
:10066E0083E493FF7E007C057DAA1208531207DAFD
:10067E00050FC28C7F057E001207DAD28C020510A0
:10068E00050BE50B7002050AE4F50FE50A7028E587
:10069E000B24FA60101460162402701B750C03757F
:1006AE000D3F020510750C03750DA0020510750C9B
:1006BE0004750D0D020510750C02750DE6750A0018
:0606CE00750B040205108B
:10082F00010EFFC100011000C181011100010F0075
:1007FA0043B20453B1FB53CADF53C9DF53B1F743C2
:0D080A00B208C2B3120817120840D2AF2284
:100817005389F0438901758A18758CFCC28DC28C87
:05082700D2A9C2B922B4
:10084000538EBF53890F758BF0758DFFC28FD28E7B
:03085000D2AB2206
:1007DA00D3EF9400EE940040167D6EEDD39400742E
:0F07EA0080948040031D80F3EF1F70E41E80E1B8
:0107F90022DD
:1006E0000204FEE493A3F8E493A34003F68001F22E
:1006F00008DFF48029E493A3F85407240CC8C3331B
:10070000C4540F4420C8834004F456800146F6DFE9
:10071000E4800B010204081020408090082CE47E45
:10072000019360BCA3FF543F30E509541FFEE493DE
:10073000A360010ECF54C025E060A840B8E493A3A5
:10074000FAE493A3F8E493A3C8C582C8CAC583CAD0
:10075000F0A3C8C582C8CAC583CADFE9DEE780BE88
:01083F0000B8
:10085300EF8DF0A4A8F0CF8CF0A428CE8DF0A42EB9
:02086300FE2273
:00000001FF
