:030000000203B147
:0C03B100787FE4F6D8FD7581200203F887
:10001E000000F88CF8F3F95BF9B8FA15FA67FAB93B
:10002E00FB04FB4BFB90FBCFFC10FC44FC79FCACBF
:10003E00FCDCFD09FD34FD5CFD82FDA6FDC8FDE87E
:10004E00FE06FE22FE3DFE56FE6EFE85FE9AFEAEBC
:10005E00FEC1FED3FEE4FEF4FF030F0111011401F5
:10006E001601190419031D011B02190416011901A9
:10007E0016011403160119021B021D041B011D019A
:10008E0020012201190419031D011B021902190274
:10009E0016021B0C0002140219041802190119058C
:1000AE00000219021902180216021801160314048E
:1000BE00140214041202110114071402140216027F
:1000CE000F02120112011102110414021904180276
:1000DE0019011905000219021902180219021B0151
:1000EE001B0119021902190218021902190119032A
:1000FE00180218011601160216021801160114082C
:10010E000004140219021904110216021604140234
:10011E001B021B040F021201120111021102000236
:10012E001402140212021202110111030F020F0225
:10013E000D0211010F010F04120211041402190213
:10014E00FF1904110216021602140214021B021BDE
:10015E00020F020F0212021102140214021D021DDE
:10016E00021B021B02190219021B0219021D021D9B
:10017E00021B011B050002140218021901190119B4
:10018E0004000219021902160118011602140218AF
:10019E000219021B0219011903140218021901197E
:1001AE000500021902190216011801160214021B8B
:1001BE00021D021E021D011D03140218021901194F
:1001CE000500021902190216011801160214021B6B
:1001DE000219021802190119050002190219021B4F
:1001EE00011D011B021902190218021B0219011925
:1001FE000100021402180219011901190400021952
:10020E000219021601180116021402180219021B15
:10021E000219011903140218021901190500021915
:10022E0002190216011801160214021B021D021EEB
:10023E00021D011D031402180219011905000219ED
:10024E0002190216011801160214021B02190218D5
:10025E0002190119050002190219021B011D011BC9
:0E026E00021902190218021B0219011901FFE0
:030548000113009C
:03000B0002043DAF
:10043D00C0E0C0F0C083C082C0D075D000C00675CA
:10044D00F002E512A4241EF582E5F03400F5837464
:10045D0001937002E493601D75F002E512A4241E51
:10046D00F582E5F03400F583E493FE740193F58A8B
:10047D00EEF58CB2B3D006D0D0D082D083D0F0D0F0
:02048D00E0325B
:03001B000204CE0E
:0404CE00C0E0C0D0FA
:1004D200E513C3950F500543B004800353B0FB05E9
:0F04E20013C3E51394FF748094804003751300D7
:0504F100D0D0D0E03284
:10027C00E4F508F509F50AF50B750CFF750D00751D
:10028C000E68120516E5C854207037300130E511A0
:10029C00045403F51114600F146012146015240338
:1002AC00701C750FFF8000C28CC2B38011750FFFDC
:1002BC00E48003E4F50FF510F50AF50BD28CC201BE
:1002CC008002D201E51114600F146067146064247D
:1002DC000370B2750FFF80ADAF0FEFF46003EF70DA
:1002EC001DE4F508F5097F017E001204F60509E509
:1002FC000970020508C394DCE508940540E8200069
:10030C0014050FC3E50F94FF74809480401B750F88
:10031C00FFD2008014D3E50F9401748094804004C4
:10032C00150F8005E4F50FC2007F327E001204F633
:10033C00020291E51164027003750FFFAB0CAA0D5C
:10034C00A90E85108275830012048FFFF4602A8F2A
:10035C0012051085108275830012048FFF7E007CBD
:10036C00057DAA1204BC1204F60510C28C7F057E12
:10037C00001204F6D28C020291E50B450A7013753B
:10038C000CFF750D01750E4FF510F50A750B01027A
:10039C000291750CFF750D00750E68E4F510F50AE9
:0503AC00F50B020291B7
:10054B00010FFFC100011100C18101120001100058
:1005160043B20453B1FB53CADF53C9DF53B1F743A8
:0D052600B208C2B312053312055CD2AF2239
:100533005389F0438901758A18758CFCC28DC28C6E
:05054300D2A9C2B9229B
:10055C00538EBF53890F758BF0758DFFC28FD28E62
:03056C00D2AB22ED
:1004F600D3EF9400EE940040167D6EEDD394007415
:0F05060080948040031D80F3EF1F70E41E80E19E
:0105150022C3
:1003BD0002027CE493A3F8E493A34003F68001F2D8
:1003CD0008DFF48029E493A3F85407240CC8C33341
:1003DD00C4540F4420C8834004F456800146F6DF10
:1003ED00E4800B0102040810204080900548E47E53
:1003FD00019360BCA3FF543F30E509541FFEE49305
:10040D00A360010ECF54C025E060A840B8E493A3CB
:10041D00FAE493A3F8E493A3C8C582C8CAC583CAF6
:10042D00F0A3C8C582C8CAC583CADFE9DEE780BEAE
:01055B00009F
:10048F00BB010CE58229F582E5833AF583E0225022
:10049F0006E92582F8E622BBFE06E92582F8E2226C
:0D04AF00E58229F582E5833AF583E4932286
:1004BC00EF8DF0A4A8F0CF8CF0A428CE8DF0A42E54
:0204CC00FE220E
:00000001FF
